:020000040800F2
:1000000000000220110A00080D0A0008C965000856
:100010000D0A00080D0A00080D0A00080000000083
:100020000000000000000000000000000D0A0008B1
:100030000D0A0008000000000D0A00084D650008C8
:100040000D0A00080D0A00080D0A00080D0A000834
:100050000D0A00080D0A00080D0A00080D0A000824
:100060000D0A00080D0A00080D0A0008A951000831
:10007000B5510008093F0008C1510008CD510008E2
:1000800015600008D54600080D0A00080D0A000892
:100090000D0A00080D0A00080D0A00080D0A0008E4
:1000A0000D0A00080D0A00080D0A00080D0A0008D4
:1000B000692A0108752A0108812A010809470008F0
:1000C0000D0A0008154700080D0A0008D92201088A
:1000D000E5220108495E0008755E0008A95E000877
:1000E0000D0A00080D0A0008000000000D0A0008B3
:1000F0000D0A00080D0A00080D0A00080D0A000884
:100100000D0A00080D0A00088D2A0108F1220108D5
:10011000DD5E0008115F00080D0A00080D0A0008E6
:100120000D0A00080D0A00081523010849230108DB
:10013000496000080D0A00080D0A00080D0A0008B1
:1001400000000000000000000000000000000000AF
:100150000D0A00080D0A00080D0A0008455F000896
:10016000214700080D0A00085D6500088165000848
:100170000D0A0008A56500080D0A00080D0A000810
:100180000D0A00080D0A0008795F0008AD5F00083D
:10019000FD220108092301080D0A00080D0A0008C4
:1001A0000D0A00080D0A00080D0A00080D0A0008D3
:1001B000C94E00080D0A00080D0A00080D0A0008C3
:1001C0000D0A00080D0A0008C9390008D5390008D1
:1001D0000D0A0008E13900080D0A00080D0A0008A0
:1001E0000D0A00080D0A00080D0A00080D0A000893
:1001F0000D0A00080D0A00080D0A00080D0A000883
:100200000D0A00080D0A00080D0A00080D0A000872
:100210000D0A00080D0A00080D0A00080D0A000862
:100220000D0A00080D0A00080D0A00080000000071
:100230000D0A00080D0A0008000000000D0A000861
:100240000D0A00080D0A00080D0A00080D0A000832
:100250000D0A00080D0A00080D0A00080D0A000822
:100260000D0A00080D0A00080D0A00080D0A000812
:100270000D0A00080D0A0008E15F000800000000F8
:100280000D0A00080D0A00080D0A00080000000011
:08029000000000000D0A000847
:1002A00010B5054C237833B9044B13B10448AFF3B0
:1002B00000800123237010BD780700240000000097
:1002C0001098010808B5034B1BB103490348AFF36D
:1002D000008008BD000000007C0700241098010881
:1002E000034613F8012B002AFBD1181A0138704776
:1002F00001F0FF01102A2BDB10F0070F08D010F8D7
:10030000013B013A8B422DD010F0070F42B3F6D1DA
:10031000F0B441EA012141EA014122F007047FF0F3
:1003200000070023F0E80256083C85EA010586EA4A
:10033000010685FA47F5A3FA87F586FA47F6A5FA86
:1003400087F68EB9EED1F0BC01F0FF0102F0070292
:1003500032B110F8013B013A83EA010313B1F8D13D
:100360000020704701387047002D06BF354603381E
:10037000073815F0010F07D1013015F4807F02BF57
:10038000013015F4C03F0130F0BC0138704700BFA8
:1003900081F0004102E000BF83F0004330B54FEA36
:1003A00041044FEA430594EA050F08BF90EA020FA3
:1003B0001FBF54EA000C55EA020C7FEA645C7FEA36
:1003C000655C00F0E2804FEA5454D4EB5555B8BF59
:1003D0006D420CDD2C4480EA020281EA030382EACA
:1003E000000083EA010180EA020281EA0303362D5C
:1003F00088BF30BD11F0004F4FEA01314FF4801C2F
:100400004CEA113102D0404261EB410113F0004F40
:100410004FEA03334CEA133302D0524263EB4303F7
:1004200094EA050F00F0A780A4F10104D5F1200E95
:100430000DDB02FA0EFC22FA05F2801841F10001F0
:1004400003FA0EF2801843FA05F359410EE0A5F1C4
:1004500020050EF1200E012A03FA0EFC28BF4CF0F5
:10046000020C43FA05F3C01851EBE37101F00045AB
:1004700007D54FF0000EDCF1000C7EEB00006EEBB8
:100480000101B1F5801F1BD3B1F5001F0CD3490842
:100490005FEA30004FEA3C0C04F101044FEA445299
:1004A00012F5800F80F09A80BCF1004F08BF5FEA20
:1004B000500C50F1000041EB045141EA050130BD00
:1004C0005FEA4C0C404141EB0101013C28BFB1F512
:1004D000801FE9D291F0000F04BF01460020B1FA5D
:1004E00081F308BF2033A3F10B03B3F120020CDA30
:1004F0000C3208DD02F1140CC2F10C0201FA0CF00E
:1005000021FA02F10CE002F11402D8BFC2F1200C72
:1005100001FA02F120FA0CFCDCBF41EA0C01904028
:10052000E41AA2BF01EB0451294330BD6FEA040471
:100530001F3C1CDA0C340EDC04F11404C4F120025C
:1005400020FA04F001FA02F340EA030021FA04F36E
:1005500045EA030130BDC4F10C04C4F1200220FAC5
:1005600002F001FA04F340EA0300294630BD21FA03
:1005700004F0294630BD94F0000F83F4801306BFC9
:1005800081F480110134013D4EE77FEA645C18BFBD
:100590007FEA655C29D094EA050F08BF90EA020F54
:1005A00005D054EA000C04BF1946104630BD91EA4C
:1005B000030F1EBF0021002030BD5FEA545C05D14F
:1005C0004000494128BF41F0004130BD14F580048E
:1005D0003CBF01F5801130BD01F0004545F0FE4102
:1005E00041F470014FF0000030BD7FEA645C1ABF37
:1005F000194610467FEA655C1CBF0B46024650EA6E
:10060000013406BF52EA033591EA030F41F4002199
:1006100030BD00BF90F0000F04BF0021704730B51F
:100620004FF4806404F132044FF000054FF00001F4
:1006300050E700BF90F0000F04BF0021704730B5B5
:100640004FF4806404F1320410F0004548BF40428A
:100650004FF000013EE700BF42004FEAE2014FEADF
:1006600031014FEA02701FBF12F07F4393F07F4FBA
:1006700081F06051704732F07F4208BF704793F0BD
:100680007F4F04BF41F40021704730B54FF46074D0
:1006900001F0004521F000411CE700BF50EA0102D3
:1006A00008BF704730B54FF000050AE050EA01027C
:1006B00008BF704730B511F0004502D5404261EBEC
:1006C00041014FF4806404F132045FEA915C3FF42D
:1006D000D8AE4FF003025FEADC0C18BF03325FEACA
:1006E000DC0C18BF033202EBDC02C2F1200300FA7B
:1006F00003FC20FA02F001FA03FE40EA0E0021FAA0
:1007000002F11444BDE600BF53B94AB9002908BF3D
:1007100000281CBF4FF0FF314FF0FF3000F074B9DC
:10072000ADF1080C6DE904CE00F006F8DDF804E048
:10073000DDE9022304B070472DE9F047089D044627
:100740008E46002B4DD18A42944669D9B2FA82F284
:1007500052B101FA02F3C2F1200120FA01F10CFAC0
:1007600002FC41EA030E94404FEA1C48210CBEFBF8
:10077000F8F61FFA8CF708FB16E341EA034306FB81
:1007800007F199420AD91CEB030306F1FF3080F010
:100790001F81994240F21C81023E63445B1AA4B25D
:1007A000B3FBF8F008FB103344EA034400FB07F7FF
:1007B000A7420AD91CEB040400F1FF3380F00A8140
:1007C000A74240F207816444023840EA0640E41B35
:1007D00000261DB1D4400023C5E900433146BDE8E1
:1007E000F0878B4209D9002D00F0EF800026C5E983
:1007F000000130463146BDE8F087B3FA83F6002E9B
:100800004AD18B4202D3824200F2F980841A61EB12
:10081000030301209E46002DE0D0C5E9004EDDE730
:1008200002B9FFDEB2FA82F2002A40F09280A1EB18
:100830000C014FEA1C471FFA8CFE0126200CB1FB6D
:10084000F7F307FB131140EA01410EFB03F0884266
:1008500008D91CEB010103F1FF3802D2884200F2F3
:10086000CB804346091AA4B2B1FBF7F007FB101185
:1008700044EA01440EFB00FEA64508D91CEB040423
:1008800000F1FF3102D2A64500F2BB800846A4EB7E
:100890000E0440EA03409CE7C6F12007B34022FA69
:1008A00007FC4CEA030C20FA07F401FA06F31C4398
:1008B000F9404FEA1C4900FA06F3B1FBF9F8200CA5
:1008C0001FFA8CFE09FB181140EA014108FB0EF0EB
:1008D000884202FA06F20BD91CEB010108F1FF3A3B
:1008E00080F08880884240F28580A8F10208614447
:1008F000091AA4B2B1FBF9F009FB101144EA014155
:1009000000FB0EFE8E4508D91CEB010100F1FF34FF
:100910006CD28E456AD90238614440EA0840A0FB97
:100920000294A1EB0E01A142C846A64656D353D06D
:100930005DB1B3EB080261EB0E0101FA07F722FA91
:1009400006F3F1401F43C5E9007100263146BDE8BA
:10095000F087C2F12003D8400CFA02FC21FA03F31D
:10096000914001434FEA1C471FFA8CFEB3FBF7F09E
:1009700007FB10360B0C43EA064300FB0EF69E42C3
:1009800004FA02F408D91CEB030300F1FF382FD25C
:100990009E422DD9023863449B1B89B2B3FBF7F604
:1009A00007FB163341EA034106FB0EF38B4208D9DD
:1009B0001CEB010106F1FF3816D28B4214D9023E1E
:1009C0006144C91A46EA004638E72E46284605E73C
:1009D0000646E3E61846F8E64B45A9D2B9EB02080D
:1009E00064EB0C0E0138A3E74646EAE7204694E79D
:1009F0004046D1E7D0467BE7023B614432E73046D0
:100A000009E76444023842E7704700BFFEE700BFD1
:100A10000B480C4A904203D0121A0B4913F024FFE2
:100A20000A480B4A904203D0121A002113F02AFF01
:100A300006F028F813F0E4FE00F016FBFEE700BF16
:100A4000000000247407002444980108780700245B
:100A5000C0160124704700BF704700BF10B50446A0
:100A6000006A08B113F0EDF8204610BD10B5044639
:100A7000806818B113F0E5F80023A360E06808B1BE
:100A800013F0DFF8204610BD10B50446806818B199
:100A900013F0D7F80023A360E06818B113F0D1F881
:100AA0000023E3600023C4E9003310BD0000000010
:100AB000837870B52DED048B052B1FD8DFE803F08C
:100AC00021355C81B4030488631E06EE103ABAEE49
:100AD000EF6A9CB14268002307EE903A0133B8EE0A
:100AE000E77A99B2F7EE007AA14237EE467AC7EE7E
:100AF000066AE6EEE67AE2EC017AEDD3BDEC048B11
:100B000070BD0388002BF9D04268581E131D80B2B7
:100B100003EB80004FF07E51984211601A4603F1BA
:100B20000403F7D1BDEC048B70BD0688002EE5D020
:100B3000731E4568002407EE903AB8EEE78B07EE87
:100B4000904A01349FED4A6BB8EEE77B27EE067BB7
:100B500087EE080BB7EEC00B13F092F89FED467AC4
:100B6000DFED467AA3B2E0EE477A9E42E5EC017AE9
:100B7000E5D8BDEC048B70BD0688002EBED0731E78
:100B80004568002407EE903AB8EEE78B07EE904AEE
:100B900001349FED376BB8EEE77B27EE067B87EEDF
:100BA000080BB7EEC00B13F06BF8F6EE007AA3B2A9
:100BB000E0EE677A9E42E5EC017AE7D8BDEC048B63
:100BC00070BD0688002E99D0731E4568002407EE7C
:100BD000903AB8EEE79B07EE904A9FED298A0134E0
:100BE000B8EEE77B9FED226B27EE067B87EE090BC5
:100BF000F7EEC08BB0EE680A13F042F8F6EE007A1A
:100C0000B0EE407A38EEA80AA7EE678A13F038F8FB
:100C1000DFED1C7AA3B29E42A0EE278AA5EC018AE2
:100C2000D9D8BDEC048B70BD0488002C3FF466AFAE
:100C3000621E4168002306EE102ABAEEEF6A07EE44
:100C4000903A0133F8EEE76A9AB2F7EE007A9442EE
:100C500076EEC66A86EE867AB0EEC77A77EEC77A07
:100C6000E1EC017AEBD8BDEC048B70BDAFF30080F2
:100C7000182D4454FB211940145CEC3EF6D1093F79
:100C80003D0AD73E0AD7A33D2DE9F04F037989B03D
:100C90000790002B00F0EE8004464FF480427C4920
:100CA0007C4813F0E1FD4FF4804200217A4813F0B4
:100CB000E9FD0022A08B227198B1216A0138754AA2
:100CC00080B20B1D03EB800000E0043391ED007A4D
:100CD0009842D2ED007A194667EE877AE2EC017A03
:100CE000F3D1079B9B69D3F800A00293BAF1000FE0
:100CF00000F0C880029B0022DFF89C81654DDC6813
:100D0000474640462946043C54F8043F934212D9D2
:100D1000604ED1F800E006EB8306D0F800C007EB88
:100D20008303D6F80090C1F80090C6F800E01E6872
:100D30000660C3F800C00132043104309245E3D1AB
:100D4000029B5B680693002B56D04FF0010BCDF849
:100D50001480CDE9035BD8464FEA4B0B4D4B00277F
:100D60004FEA8809DDF814C04FEA8B0E03EB8805C3
:100D7000BAFBFBF6F600B8F1000F2FD0029B09EB8F
:100D80000C04284661469A68039B03EB870392EDA7
:100D9000015AD4ED007AD2ED004A324427EEC56AFA
:100DA000D0ED005A64EEA77AD3ED006A91ED007A97
:100DB000A4EEA56AE5EE257A36EE865A77EE275A36
:100DC00076EEC66A77EE677AA3EC015A9D42E1ECB3
:100DD000015AE0EC016AE4EC017AD8D15F44F444B2
:100DE0007544BA45C7D8049B069A01339A420493C6
:100DF000B1D2039DDDF81480079E284F2436344677
:100E0000B8EC010AF5EC017A20EE000AA7EEA70A79
:100E1000B5EE400AF1EE10FA2FD4F1EEC07ABD42E1
:100E2000E4EC017AECD11E48002402F049FC1D4894
:100E300002F046FC07EE904A9FED1B7AB6EC016A81
:100E40000134F8EEE77A1948B7EEC66A67EE877A9A
:100E50008DED006BB7EEE77A53EC172B02F030FC08
:100E600040F601039C42E5D1114809B0BDE8F04FBE
:100E700002F026BC09B0BDE8F08F13F0CFFBF0EE16
:100E8000407ACCE70B4B3C210B4A0C4813F06CFC2E
:100E9000008000C0004000C0000000C0046000C02E
:100EA000C0760108C876010800803B41DC76010865
:100EB000E87601087C76010894760108B876010886
:100EC0002DE9F0410025344F344C3A463449284648
:100ED000DFF8F48012F0AEFE04F5C07025606561A5
:100EE0002562E56302F030FC2E4A40F20F732E4972
:100EF0002046C4F8382204F51472A4F83C3240F2BB
:100F00000113C4F89051C4F84852C4F84C52274E0B
:100F1000C4E990233A4612F08DFE3A4624494046F1
:100F2000C8E90055C8E9025512F084FE4FF4805319
:100F30004FF48040F361C6E9005512F084FE306240
:100F400006F11C001B4DFFF7B3FD30463A461A4927
:100F5000C6E90548194E12F06DFEDFF87080304684
:100F600000F00EFB3A461649304612F063FE284662
:100F700000F006FB3A461249284612F05BFE314665
:100F80002A462346404600F015FA3A4640460D49A7
:100F9000BDE8F04112F04EBE00000024682A002493
:100FA000590A00080080707F550A0008A80700242D
:100FB0006D0A0008142900245D0A0008D0270024C7
:100FC00011150008A1130008582A002494070024D2
:100FD0002DE9F84306460F46904605F067FB1D4B8A
:100FE0001860B8F1000F31D000241B4D33684FEA70
:100FF00084091A4803EB8403013493ED000A00F0DE
:1010000091FA2A79164B174882B9D5F800C04FF0EB
:10101000010E0CEB0E0103EB8C03B1F5805F296030
:1010200083ED000A02DB2A6085F804E03968726803
:1010300049447B684A4481ED000A994492ED000AD4
:1010400000F070FAA04589ED000ACFD1BDE8F84361
:1010500005F02CBB48BD0024A8070024D02700249D
:10106000008000C0142900242DE9F04FB84E002460
:10107000B84D4BF680313046DFF820832DED028BE2
:1010800085B000F06FFC4BF680312846347200F0DA
:1010900069FC2146B0482C7206F0C6F90621AF481B
:1010A00006F0C2F90121AE4806F0BEF90221AD48B2
:1010B00006F0BAF90421AC4806F0B6F90321AB48B2
:1010C00006F0B2F90721AA4806F0AEF94046FFF74C
:1010D000DBFC4FF480520C234FF48040C8E900231E
:1010E00012F0B1FDD8F800306FF06042C8F8080087
:1010F000934234BF98004FF0FF3012F0A4FDD8F8AF
:1011000008400746C8F80C00002C00F01481D8F8FD
:1011100000505FEA550900F0128107EE905A002650
:10112000F8EE678A07EE906A9FED927A08340136EE
:10113000F8EEE77A67EE877A87EEA88AB0EE480A7B
:1011400012F09EFDF0EE407AB0EE480A44ED027ACD
:1011500013F05EF9B14504ED010AE3D1D8F804407B
:10116000043F0026002C4FF0000009DD3146024606
:10117000013201F001034908944243EA4000F7D1EB
:10118000013647F8040FB542ECD87B4B02229D8B09
:101190009A77F5B16A1E1E6A002407EE902AB8EE0F
:1011A000E78B07EE904A01349FED676BB8EEE77B63
:1011B00027EE067B87EE080BB7EEC00B12F060FD42
:1011C000F6EE007AA3B2E0EE677A9D42E6EC017A91
:1011D000E7D80021694800F0D3FD002002F07EFA34
:1011E000082166484FF0000800F0C0FC0321634866
:1011F000474600F0D1FCDFF860916048C24600F03D
:10120000E1FC5F495D4801AC5C4E09F1180B00F050
:10121000ABFC21E0BAF1000F54D099E8070084E854
:1012200007002146574802F0D1FA08EB480309EBC2
:10123000830393E8070084E807005348214602F03F
:10124000C5FA4E4800F0FCFC2DB9504800F02AF9D0
:101250004948FFF719FD0137484800F0B7FC4748F7
:1012600000F0C0FC96F844303BB1736E002B5DDBA0
:1012700003D00021454800F0BBF896F84C301BB174
:1012800096F852307F2B4DD096F8B4301BB196F8BB
:10129000BA307F2B2ED096F8C4301BB196F8CA30E6
:1012A0007F2B2FD0BD093A4A3A4BA2FB0525AD0949
:1012B00003FB1575314800F0A5FC344800F096F8A2
:1012C0000028A7D001280BD1BAF1000F08D09BE865
:1012D000070084E8070021462A4802F077FAA4E7CD
:1012E000234B93E8070084E807002146254802F0D5
:1012F0006DFA9AE78AF00103514624489A4600F0B5
:10130000C9F8C8E70321214800F072F8FDEEC07A61
:101310000127214817EE901A17EE908A3D4602F0F9
:10132000CFF9C7E7194800F051F8ADE70121174898
:1013300000F05EF8A1E71948FFF7A6FB25E7002DAE
:101340003FF423AF0AE700BF182D4454FB21194096
:10135000D0270024142900244CBD002458BD0024AB
:1013600064BD002470BD00247CBD002488BD002421
:1013700094BD0024DB0FC9C0A8070024682A0024FC
:10138000D10F0008402B0024942B00249407002444
:10139000632D3E05400D0300F0760108582A002415
:1013A000704700BF10B50446142112F048FC2046D7
:1013B00010BD00BF036100230371C380024BC0E96D
:1013C00002120360704700BF2C770108037923B92C
:1013D000012303719FED040A7047012BFAD100230A
:1013E0009FED010A0371704700000000007970470B
:1013F00010B50446032911D8DFE801F025130C02CB
:10140000C38801331BB2052B34DD00239FED1F0A77
:10141000C38010BD037943B3012B31D09FED1B0A6C
:1014200010BD0279B0F906109FED190A806800F02E
:10143000DBFA2279B4F90610E0689FED150ABDE8E1
:10144000104000F0D1BA0279B0F906109FED100AF1
:10145000806800F019FB2279B4F90610E0689FED6E
:101460000C0ABDE8104000F00FBB01239FED070AF6
:10147000037110BD07EE903AC380B8EEE70A10BDC5
:1014800000239FED020A037110BD00BF00000000A1
:10149000CDCCCC3D81F00101D0E90223117219724B
:1014A000704700BF70B50023174A05461C462DED56
:1014B000028B88B092E8030006AE8DF81D300690CE
:1014C0008DF81C1021B20022A8680134059100F0AB
:1014D0002BFBB0EE408A01220599A86800F024FB9E
:1014E000B7EEC88AB7EEC00A16F8011B22460748B5
:1014F0008DED028B8DED000B02F0E2F8062CE1D1B0
:1015000008B0BDEC028B70BD30760108047701088D
:10151000704700BF10B504464FF4A27112F08FFB64
:10152000204610BD037A53B300F1F003D0ED1B6ADF
:101530002830D0ED0F7AD0ED0E3A66EEA77AD0EDD6
:10154000124A90ED104A80ED110AE3EE807A90ED98
:10155000137A90ED0C5A90ED146AD0ED0D5A80ED8F
:10156000147AC0ED126A9842E4EE247AB0EE670A6B
:10157000A5EE470AA5EEC60A80ED130AD6D170473C
:101580000249012201600272704700BF3C770108E6
:1015900001EB4103B3EE027A4A0000EB8303D3ED83
:1015A000037AF4EEC77A70B5F1EE10FA0D460446F0
:1015B0002DED048B06DCBBEE027AF4EEC77AF1EE79
:1015C00010FA01D583ED037A53199FEDE57A04EB08
:1015D0008303D3ED047AF4EEC77AF1EE10FA06DC59
:1015E000B0EE007AF4EEC77AF1EE10FA01D583ED91
:1015F000047A5319B3EE047A04EB8303D3ED057A2E
:10160000F4EEC77AF1EE10FA06DCB7EE007AF4EEEB
:10161000C77AF1EE10FA01D583ED057A002D00F0BE
:10162000FF80052D71D02A44D4ED017AB2EE040B6F
:1016300005EB850504EB8202B8EEE78AF7EE009A27
:1016400004EBC50692ED037AED0092ED049AB7EE35
:10165000C77AD2ED058A9FEDBE1B87EE011B12F003
:101660000BFC89EE087AB7EEC09B9FEDBB6BB7EE23
:10167000C77A27EE067BB7EEC78BB0EE480A12F0AA
:10168000C7FEB7EEE86AB0EE407AB0EE480A36EE32
:10169000066BB7EEC77A87EE068BF0EE697AB7EE87
:1016A000C88BE9EE087AC6ED187A12F0E9FA88EEEE
:1016B000097A05F1540323446034F0EE697A2C442E
:1016C000F8EE006AE9EE487A20EE260A86ED190A5D
:1016D00086ED160AC6ED1A7A77EE297A39EEC77AC0
:1016E000C6ED157A86ED177AD3ED006A86EEA77AF5
:1016F000A3EC017A9C42D3ED026A86EEA77A83EDD1
:10170000027AF1D1BDEC048B70BD94ED127AB2EE89
:10171000040BD4ED016AB6EE009AB7EEC77AD4EDA9
:10172000138AB8EEE68A9FED8A1B87EE011B12F042
:10173000A3FB88EE887AF7EEC08B9FED874BB7EE60
:10174000C77A27EE047BB7EEC78BB0EE480A12F0DB
:101750005FFEF5EE408A20EE099AF1EE10FA00F1F4
:10176000E980B1EEE84A34EE044AB0EE480A24EECD
:10177000099A12F085FAB7EEE85AB7EE007BB7EE99
:10178000C00AB8EE003B35EE072B35EE477B25EE61
:10179000033BB0EE471BB0EE426BB7EEC94AA2EE78
:1017A000001BA7EE006BBDEC048B23EE013B36EE75
:1017B000441B36EE046B21EE051B26EE056BB7EEDF
:1017C000C15BB0EE421BB7EEC33BF7EEC65BA7EEC4
:1017D000401BA2EE407B34EE016B31EE444BB7EE82
:1017E000C66B37EE077BB7EEC44BC6EE063AB7EED4
:1017F000C77BC5EE864AC3EE066AC7EE065AC4ED3D
:10180000473A84EE067AC4ED4A4AC5EE067AC4ED3C
:101810004B6AC4ED485A84ED497AC4ED4C7A70BDE8
:1018200094ED037AB2EE040BD4ED016AB6EE009AA1
:10183000B7EEC77AD4ED048AB8EEE68A9FED441B72
:1018400087EE011B12F018FB88EE887AF7EEC08B4A
:101850009FED415BB7EEC77A27EE057BB7EEC78BEE
:10186000B0EE480A12F0D4FDF5EE408A20EE099A57
:10187000F1EE10FA65D4F1EEE87A77EEA77AB0EEE1
:10188000480A27EE898A12F0FBF9B7EEE86AB7EE4C
:10189000007BB7EEC00AB7EEC88A36EE073B36EEDD
:1018A000477B36EE062BB0EE435BB0EE474BA7EE20
:1018B000405BA3EE404B22EE042B35EE484B35EE59
:1018C000085B24EE064B25EE066BB8EE005BB7EE28
:1018D000C22BB7EEC66BF7EEC46BB0EE434BA7EE70
:1018E000004BA3EE007B27EE057B38EE045B34EE65
:1018F000484BB7EEC55BB7EEC44BB7EEC77BC6EE41
:10190000053A85EE053AC2EE054AC4EE055AC4ED25
:10191000183A86EE856A84ED153AC7EE057AC4ED6D
:10192000194ABDEC048BC4ED175A84ED1A6AC4ED54
:10193000167A70BDB0EE680A12F070FEB0EE404A42
:1019400011E7B0EE680A12F069FEF0EE407A94E713
:101950000000000000004440EA2E4454FB211940DE
:1019600000409C46194AF8B506460261184C00230F
:10197000184A37464160002517481849F461344633
:10198000B262174AF360B3617362706333633164A8
:10199000F363F264B36400234FF07E524FF0804C47
:1019A00029B20135A36563663046E3650C37A3664B
:1019B0002834E262A2632365E364A3646364C7F826
:1019C00008C0FFF7E5FD062DE5D1F8BD0000C842CF
:1019D0000000C84300007A440000FA4400007A4541
:1019E0000000FA450000000070B505460C46D2B96B
:1019F00001EB410305294FEA410600EB8303D3EDD8
:101A0000037A37EEC00A04DCF4EE407AF1EE10FA05
:101A100029D121463444284605EB8405FFF7B8FD5B
:101A200095ED030A70BD01EB41034E0000EB83030B
:101A3000D3ED046A9FED125BB7EEE64A84EE057BB8
:101A4000B7EEC77BF4EE476AF1EE10FA01D0052934
:101A50000EDD21463444284605EB8405FFF798FD4A
:101A600095ED040A70BD83ED030AFFF791FDD0E701
:101A700083ED047AFFF78CFDEBE700BFAFF3008046
:101A80006379D9928FF3F03F70B505460C46D2B911
:101A900001EB410305294FEA410600EB8303D3ED37
:101AA000037A37EE800A04DCF4EE407AF1EE10FAA5
:101AB00029D121463444284605EB8405FFF768FD0B
:101AC00095ED030A70BD01EB41034E0000EB83036B
:101AD000D3ED046A9FED125BB7EEE67A27EE057B45
:101AE000B7EEC77BF4EE476AF1EE10FA01D0052994
:101AF0000EDD21463444284605EB8405FFF748FDFA
:101B000095ED040A70BD83ED030AFFF741FDD0E7B0
:101B100083ED047AFFF73CFDEBE700BFAFF30080F5
:101B20006379D9928FF3F03F012A05D0022A11D0B0
:101B30004AB19FED0C0A704701EB410100EB8100B7
:101B400090ED040A704701EB410100EB810090ED3C
:101B5000030A704701EB410100EB810090ED050A9B
:101B6000704700BF0000000000F0A0B938B504467F
:101B700000F0BCF9D4F8A850204600F0D3F928466C
:101B800001F08AFCD4F8AC50204600F0CBF928468E
:101B9000BDE8384001F080BC38B5044600F08AF951
:101BA000D4F8A850204600F0BDF9284601F074FC96
:101BB000D4F8AC50204600F0B5F92846BDE83840CE
:101BC00001F06ABC183002F033B900BF10B504460A
:101BD000683001F03DFC04F18800BDE8104001F0E0
:101BE00037BC00BF10B50446403001F0B1FC04F131
:101BF000B00001F029FE04F1C000BDE8104001F082
:101C000023BE00BF70B586B0064607216D4603AC03
:101C1000284605F009FC95E8070084E807002146FE
:101C200006F1D80001F0D2FD95E8070084E807002E
:101C3000214606F5967001F0C9FD06B070BD00BFE3
:101C400010B50446D83001F0D7FD04F59670BDE814
:101C5000104001F0D1BD00BFF0B54FF481718FB0DD
:101C600000F1D80701254FF4C0624FF4E063ADF8EE
:101C7000081000F5967402993846ADF80C2008AEAD
:101C8000ADF810300095DDE9032301F077FD40F257
:101C900001134FF480722046ADF814304FF4806386
:101CA000059900950BADADF81820ADF81C30DDE9B5
:101CB000062301F063FD3046072105F0B5FB96E8E9
:101CC000070085E807002946384601F07FFD96E8C1
:101CD000070085E807002946204601F077FD3846D1
:101CE00001F08AFD20460FB0BDE8F04001F084BD50
:101CF0002DE9F04140F2024304460222002504F19E
:101D0000180704F1A8062DED028B8EB09FED1B8AFB
:101D1000ADF80C3005A8039901F068FE02220DF120
:101D20002600ADF81020049901F060FE0423022281
:101D300005A9384601F06EFE04F1680204F188033B
:101D4000C4E92A232946384656F8048B02F086F85F
:101D500001462046019100F0E5F80023F0EE480A24
:101D6000019940461A4601F041FB25B10EB0BDEC89
:101D7000028BBDE8F0810125E4E700BF6F12033B51
:101D80002DE9F04104469AB00027019100F08CF84B
:101D90000199204600F086F940F6061304F1B006DA
:101DA0009FED400AADF8143004F1C00530460599A6
:101DB00001F030FD4FF4007328469FED3A0AADF86C
:101DC000183004F5C878069901F024FD40F6033276
:101DD00040F201639FED330AADF8082004F14000A2
:101DE0000299ADF80C70C4F8D0600FAEC4F8D450AE
:101DF00007ADADF81030DDE9032301F079FB204693
:101E0000FFF72AFF2046FFF773FF284601F09CFCEE
:101E100001230DF12C0E04F5C07C1593189347F6A1
:101E20001223169719930223179395E80F008CE855
:101E30000F008EE80F0086E80F00BDF840301490C8
:101E4000ADF84E30BDF84230D4E9625EADF84C30AA
:101E5000C4E9655EBEF1000F04D0724639462846DB
:101E600012F010FD13A9404604F0A4F904F5D27055
:101E700001F07EFC3021204600F038F8D4F8A8505C
:101E8000204600F04FF8284601F006FBD4F8AC508D
:101E9000204600F047F828461AB0BDE8F04101F0AE
:101EA000FBBA00BF00000000704700BF143001F013
:101EB00069BA00BF38B500F1140504462DED028B58
:101EC000284601F01BFA284601F014FA2846B0EE25
:101ED000408A01F0FDF9D0ED007AF8EE677A88EEDD
:101EE000277ABDEC028B84ED0E7A38BD38B500F14F
:101EF000140504462DED028B284601F0EDF9284625
:101F000001F0F8F92846B0EE408A01F0E1F9D0ED91
:101F1000007AF8EE677A88EE277ABDEC028B84EDC2
:101F20000E7A38BD90ED0E0A704700BF10B540F232
:101F300003338EB000244FF60B7240F20341ADF82C
:101F4000083009A80123ADF81020ADF8242022465E
:101F5000ADF80C100094029907940C94CDE9054457
:101F6000CDE90A4402F07CF804A801232246039933
:101F7000009402F075F809A802F058F910B9012090
:101F80000EB010BD04A802F051F9A0420CBF02200F
:101F900020460EB010BD00BF2DE9F04103239AB0DA
:101FA000012700240646CDE914373B4BCDE9104309
:101FB00040F20453CDE91647ADF84830FFF7B6FFBD
:101FC000B842054625D0022845D040F60132334BB1
:101FD0000DF12C081894ADF82C200B981997CDF81A
:101FE0004A3000F0E3F810A906F13C0003F068F96C
:101FF000302003224FF07E5341460D930E93CDE9DE
:102000000B02F26B06F1140001F02AF91AB0BDE8D8
:10201000F0811023214A06A906908DF828300DF191
:102020002C081F4BCDF84A2007930294CDE91804E1
:10203000CDE9080402A802F079FB0823029A03A95B
:102040004046ADF80C508DF80E40049505930B9466
:1020500000F0ECF8C7E700200121104B0DF12C082F
:102060003A460094CDF84A304FF60B730C94ADF815
:102070002C302346CDE9180140F601314046ADF839
:1020800018100699CDE90D4401F0EAFF21464046BB
:1020900002F0D8F8A7E700BF040204040406040312
:1020A0000704010B2DE9F04704462DED028B82B0A9
:1020B00000294DD0012140F2011200230091ADF81A
:1020C00004208DF80630364A0127364B04F1040906
:1020D000354904F12908626040F20272A36040F6BB
:1020E0000663E16004F1250AA4F82520A4F829304C
:1020F000278284F8277084F82B7004F079FC054659
:1021000004F0DCFA6946064650BB4DB304F13000DA
:102110008DF8067004F0F4FB072D3CD104F1140592
:102120002046FFF739FF284601F0E4F82846B0EED4
:10213000408A01F0CDF8D0ED007AF8EE677A88EEAB
:10214000277A84ED0E7A02B0BDEC028BBDE8F087F1
:1021500040F2011300918DF80610ADF80430B2E79B
:1021600004F1300004F0CCFB072D11D04946204685
:1021700002F026FD0EB9002DD0D1504602F06CF8C9
:10218000404602F069F804F1120000F079F9C5E761
:10219000002EF2D1C2E74946204602F011FDBDE70C
:1021A0000508050905070506050A060610B584B0E9
:1021B00003460124ADF8040003A8ADF80C30ADF8D7
:1021C0000E4002F049F8214603A802F02FF92046FC
:1021D00004F072FA002103A802F028F9204604F066
:1021E0006BFA214603A802F021F904B010BD00BF2C
:1021F00010B5C2F3002384B00C46017C8DF80D208D
:1022000043EA4402FA2402238DF80C2003AA009426
:1022100002F022FB18B10124204604B010BD044690
:102220000A2004F049FA204604B010BD034670B5F8
:1022300043F8042B044684B007C983E80700A37958
:1022400083B91A210B461E22FA2523742046ADF8C5
:102250000C20022303AA009502F0FEFA28B1012007
:1022600004B070BD1B210B46EDE70A2004F024FAF0
:102270004FF4B85200950223ADF80C20204603AA73
:10228000217C02F0E9FA0028E9D10A2004F014FACE
:1022900041F2027200950223ADF80C20204603AAF9
:1022A000217C02F0D9FA0028D9D10A2004F004FADE
:1022B000042200950223ADF80C20204603AA217CBD
:1022C00002F0CAFA0028CAD10A2004F0F5F9062261
:1022D00000950223ADF80C20204603AA217C02F0D1
:1022E000BBFA0028BBD10A2004F0E6F941F208222B
:1022F00000950223ADF80C20204603AA217C02F0B1
:10230000ABFA0028ABD10A20064604F0D5F90095B7
:10231000022303AA217C2046ADF80C6002F09CFA4F
:1023200000289CD1304604F0C7F9009522790C238F
:102330002046002A8DF80C3003AA4FF0020314BF88
:10234000622142218DF80D10217C02F085FA0028CF
:1023500085D1304604F0B0F92279D4E902310B433B
:10236000DBB20AB943F0400362790AB143F02003BB
:102370000E22FA258DF80D302046009502238DF8A7
:102380000C2003AA217C02F067FA00287FF467AFD3
:102390000A2004F091F9102200950223ADF80C20D8
:1023A000204603AA217C02F057FA00287FF457AF99
:1023B0000A2004F081F9122100950223ADF80C10D7
:1023C00003AA217C204602F047FA00287FF447AF99
:1023D0000A2004F071F9012209212046FFF708FFC5
:1023E000003818BF01203BE7F0B5102387B0234C1D
:1023F000012200250126002702A920460195CDE9EA
:1024000002234FF48052CDE904670BF091FD642064
:1024100005F03CF902A94FF480522046CDE904674B
:1024200002261027CDE902670BF082FD032210235C
:1024300002A92046CDE9022300230422CDE904238A
:102440004FF480520BF074FD40F23223042202A9B3
:10245000019310232046CDE90223019A012305921E
:102460004FF4805204930BF063FD40F606012046C2
:102470000BF07EFD284607B0F0BD00BFA8BD0024CC
:102480001C4B00221C494FF0400C30B5054689B06A
:102490000220596007219A601A620124DA620A2236
:1024A0004FF4006EDC6006922022CDE9000104208A
:1024B0000821CDE9020103201021CDE90401082003
:1024C0006946C3E904024FF4C072181DC3E906C28D
:1024D0004FF48052C3E909E20BF000FD38B92846F9
:1024E000FFF782FF003818BF012009B030BD204639
:1024F00009B030BDA4BD002440410052614A002112
:10250000D0B513688EB00A91002B40F0B9805E4BB5
:1025100001214FF683700C2411600221D3F8D420DE
:102520000026032742F48052C3F8D420D3F8D420E5
:1025300002F480520092009AD3F8E02042F0100298
:10254000C3F8E020D3F8E02002F010020192019AD3
:10255000D3F8E02042F04002C3F8E020D3F8E020B6
:1025600002F040020292029AD3F8E02042F0080200
:10257000C3F8E020D3F8E02002F008020392039AA7
:10258000D3F8E02042F48072C3F8E020D3F8E020D2
:1025900002F480720492049AD3F8E02042F08002A0
:1025A000C3F8E020D3F8E02002F080020592059AFB
:1025B000D3F8E02042F02002C3F8E020D3F8E02076
:1025C00002F020020692069AD3F8E02042F00402BC
:1025D000C3F8E020D3F8E0300C9403F00403079331
:1025E0000323079A0B93CDE9080108A9274806F0B1
:1025F000D3FE48F23712022308A925480C94CDE9EE
:102600000823CDE90A6706F0C7FE4CF203720223E5
:1026100008A920480C94CDE90823CDE90A6706F003
:10262000BBFE40F2FF62022308A91B480C94CDE9CF
:102630000823CDE90A6706F0AFFE4FF60C720223BD
:1026400008A916480C94CDE90823CDE90A6706F0DD
:10265000A3FE4FF63F02022308A911480C94CDE9CE
:102660000823CDE90A6706F097FE2022022308A975
:102670000A480C94CDE90A67CDE9082306F08CFEE0
:102680000EB0D0BDA0BD0024004402580010025876
:1026900000180258000C025800200258001C025872
:1026A000001402582DE9F04FDFF8108406460D465D
:1026B000144608F118002DED028B89B000AF02F02E
:1026C000F7FED8F8183073B3D8F81C30D8F8049057
:1026D000002B43690BBF4FF0080A4FF0100A4FF070
:1026E000020B4FF0040BB9F1000F2AD0A200EA460A
:1026F000012B02F1070222F00702ADEB020D684642
:10270000ADEB020D694600F03F81022B00F0D68050
:10271000002B6FD02246C847D5462437BD46BDECB6
:10272000028BBDE8F08FD8F81C30002BF5D0D8F81C
:1027300004904FF0080A4FF0020B4369B9F1000F03
:10274000D4D1FB61D8F80030BB61002BE5D0D5486F
:1027500002F020FF6B46BBF1020F786108EE103AE1
:10276000FB6900F083816A465146A2EBC40295469C
:102770006200EA46B2FBFBF2AAEBC40085460AEB14
:102780008200EE46F861ADEB010DF8690EEB820CAC
:10279000C7F810C0EC46ADEB010D00EB8201CCF8A0
:1027A0000400CCF8081001EB82013869E946CCF846
:1027B0000C1000EB8201CCF800A001EB8202C9E909
:1027C00000E0C9E90212012B00F06483022B00F043
:1027D0006C82002B00F08081620849466046BB692C
:1027E000984718EE103A24379D46BD46BDEC028B43
:1027F000BDE8F08F002C8DD01A46D8ED0C6A9FED05
:10280000B27A8446331D36F922E00CF1080C07EE4B
:1028100090EA33F922E00232F8EEE77A944267EE6A
:10282000877A67EEA67A4CED027A07EE90EAF8EE28
:10283000E77A67EE877A67EEA67A4CED017AE2D8FE
:10284000F9612246C847984ED8ED0D6A0020F96913
:102850002B1D9FED9E7A9FED9E6ADFED9E5A22E032
:10286000F4EEC67AF1EE10FAC0F2C88447F6FE72B2
:10287000D1ED017A45F8202066EEA77AF4EEC77A0A
:10288000F1EE10FA40F2F080F4EEC67AF1EE10FAB2
:10289000C0F2D58447F6FE7243F82020023008319A
:1028A00084427FF639AFD1ED007A66EEA77AF4EE76
:1028B000C77AF1EE10FAD3D83246D9E7002C3FF4AC
:1028C00029AFD8ED0C6A84469FED787A0022331D3B
:1028D0008E4656F822100CF1080C07EE901A53F8A9
:1028E00022100232F8EEE77A944267EE877A67EEBA
:1028F000A67A4CED027A07EE901AF8EEE77A67EEC8
:10290000877A67EEA67A4CED017AE2D871462246C4
:10291000C7F81CE0C847664ED8ED0D6A0020F9697B
:102920002B1D9FED6A7A9FED6A6ADFF894C120E063
:10293000F4EEC67AF1EE10FAC0F279843246D1EDA7
:10294000017A45F8202066EEA77AF4EEC77AF1EE18
:1029500010FA40F28780F4EEC67AF1EE10FAC0F277
:102960005E84324643F820200230083184427FF6EC
:10297000D3AED1ED007A66EEA77AF4EEC77AF1EE27
:1029800010FAD5D86246DAE7002C3FF4C3AED8ED92
:102990000C6A86469FED477A4FF0000C331D56F8BF
:1029A0002C200EF1080E82F40002A2F5000207EEC0
:1029B000902A53F82C200CF1020CF8EEE77A82F4FE
:1029C00000026445A2F5000267EE877A67EEA67AF8
:1029D0004EED027A07EE902AF8EEE77A67EE877AF4
:1029E00067EEA67A4EED017AD9D8F9612246C8473A
:1029F000314ED8ED0D6A0020F9692B1D9FED337A19
:102A00009FED336ADFF8BCC01FE0F4EEC67AF1EE4A
:102A100010FAC0F2FC833246D1ED017A45F820204D
:102A200066EEA77AF4EEC77AF1EE10FA18D9F4EE52
:102A3000C67AF1EE10FAC0F2DA83324643F820206B
:102A40000230083184427FF667AED1ED007A66EE3F
:102A5000A77AF4EEC77AF1EE10FAD6D86246DBE731
:102A60006246EBE762467DE7324615E7A100D646AF
:102A70006208073121F00701ADEB010DEA46ADEB2D
:102A8000010D6946ADEB0E0D0AEB8200EC46ADEB95
:102A90000E0D01EB8202F861E946CCE900A0C9E91C
:102AA000001290E6F8BD00240280FFFF0000003015
:102AB0000082FF7F0000003482FF7F00DCBD002425
:102AC000007E00807E0080FF0000003804FF7FBF92
:102AD00004FF7F3F00FEFF46002C00F0C982BBF1DF
:102AE000020FD8F8242000F0FA827969C7F8049020
:102AF00002EB810E5FED0C5A8A00DCF808100EF133
:102B000004007A611A46DCF80C303B61331DD7F8BB
:102B100010903D61FD69C7E902CB8C46834636F9CA
:102B20002210D8ED0C7A06EE101A33F9221006EEB8
:102B3000901A3EF92210B8EEC66A07EE101AF8EEA7
:102B4000E66A3BF92210B8EEC77A26EE256A66EEF1
:102B5000A56A27EE257A26EE276A66EEA76A27EE93
:102B6000277A07EE901A51080232F8EEE77A0AEB5C
:102B70008100944280ED006A05EB810067EEA57A42
:102B8000C0ED006A0CEB810009EB810180ED007A59
:102B900098ED0C7A67EE877AC1ED007ABFD8D7F846
:102BA00004903D69D7E902CB60466208BB6949469B
:102BB0009847D8F82C307A69D8ED0D6A1A441FED81
:102BC0003D7A1FED3D6A2B1D904602F1040A5FED30
:102BD0003F5A0022A84ED9E900EC51E0F4EEC67A43
:102BE000F1EE10FAC0F2C78247F6FE7045F82200F7
:102BF0000CEB0100D0ED007A66EEA77AF4EEC77A0E
:102C0000F1EE10FA4BD9F4EEC67AF1EE10FAC0F2FA
:102C1000BA8247F6FE70BBF1020F43F822002BD0B8
:102C2000D9F808000844D0ED007A66EEA77AF4EEF1
:102C3000C77AF1EE10FA36D9F4EEC67AF1EE10FA50
:102C4000C0F2CD8247F6FE7048F82200D9F80C0099
:102C50000144D1ED007A66EEA77AF4EEC77AF1EE80
:102C600010FA1ED9F4EEC67AF1EE10FAC0F2AF8275
:102C700047F6FE714AF82210023294427FF6B1AD57
:102C800051080EEB81008900D0ED007A66EEA77A3C
:102C9000F4EEC77AF1EE10FAA0D83046A6E7304637
:102CA000B9E73146E6E73046CEE7002C00F0E08198
:102CB000BBF1020FD8F8243000F0E1817A69DCF82A
:102CC000081003EB820EC7F804909300DFED6B5AF7
:102CD0000EF1040000227B61DCF80C303B61331DF7
:102CE000D7F810903D61FD69C7E902CB8C46834659
:102CF00056F82210D8ED0C7A07EE101A53F822106D
:102D0000B8EEC76A07EE101A5EF82210F8EEC76A2E
:102D100007EE101A26EE256A5BF82210B8EEC77A85
:102D200066EEA56A26EE276A27EE257A66EEA76A82
:102D300027EE277A07EE901A51080232F8EEE77A6A
:102D40000AEB8100944280ED006A05EB810067EE9A
:102D5000A57AC0ED006A0CEB810009EB810180EDE2
:102D6000007A98ED0C7A67EE877AC1ED007ABFD8C9
:102D7000D7F804903D69D7E902CB60466208BB6989
:102D800049469847D8F82C307A69D8ED0D6A1A442C
:102D90009FED3E7A9FED3E6A131D9246DFF8E4C038
:102DA0000022FB612B1D364ED9E9008E4EE0F4EE79
:102DB000C67AF1EE10FAC0F2FC81304645F82200E6
:102DC0000EEB0100D0ED007A66EEA77AF4EEC77A3A
:102DD000F1EE10FA49D9F4EEC67AF1EE10FAC0F22B
:102DE000EF813046BBF1020F43F822002AD0D9F818
:102DF00008000844D0ED007A66EEA77AF4EEC77AB0
:102E0000F1EE10FA35D9F4EEC67AF1EE10FAC0F20E
:102E1000C98130464AF82200D9F80C000144D1EDAE
:102E2000007A66EEA77AF4EEC77AF1EE10FA1ED9B0
:102E3000F4EEC67AF1EE10FAC0F2AD813146F869CF
:102E400040F82210023294427FF6CBAC510808EBD6
:102E500081008900D0ED007A66EEA77AF4EEC77A99
:102E6000F1EE10FAA3D86046A8E76046BAE76146DB
:102E7000E5E76046CEE700BF0280FFFF00000030BC
:102E80000082FF7F007E00800000003404FF7FBFCF
:102E900004FF7F3F002C00F0EB807A690021D8F816
:102EA0002430C7F8109003EB820ED7F81C909300E3
:102EB000FD610EF104021FED0C6A7B61331D1546A6
:102EC00056F821204808D8ED0C6ABBF1020F82F4B5
:102ED0000002A2F5000207EE902A53F8212082F4A6
:102EE0000002B8EEE77AA2F5000227EE067A07EEB6
:102EF000902A0AEB8002F8EEE77A27EE267A67EE50
:102F0000867A82ED007A09EB80024FEA800067EE54
:102F1000A67AC2ED007A27D05EF8212082F4000262
:102F2000A2F5000207EE902A55F8212082F4000253
:102F3000B8EEE77AA2F5000227EE067A07EE902AAD
:102F4000DCF80820F8EEE77A024427EE267A67EEEE
:102F5000867A82ED007A98ED0C7ADCF80C2067EE28
:102F6000877A0244C2ED007A02318C42A8D8D7F8A1
:102F7000109060466208BB694946FD699847D8F8D9
:102F80002C307A69D8ED0D6A1A441FED407A1FED96
:102F9000406A131D9246DFF8C4C20022FB612B1D5C
:102FA000AB4ED9E9008E4EE0F4EEC67AF1EE10FA9F
:102FB000C0F2C580304645F822000EEB0100D0ED8E
:102FC000007A66EEA77AF4EEC77AF1EE10FA49D9E4
:102FD000F4EEC67AF1EE10FAC0F2BF803046BBF1D3
:102FE000020F43F822002AD0D9F808000844D0ED97
:102FF000007A66EEA77AF4EEC77AF1EE10FA35D9C8
:10300000F4EEC67AF1EE10FAC0F2AE8030464AF81D
:103010002200D9F80C000144D1ED007A66EEA77ABF
:10302000F4EEC77AF1EE10FA1ED9F4EEC67AF1EE9C
:1030300010FAC0F28B803146F86940F82210023253
:1030400094427FF6CEAB510808EB81008900D0EDA9
:10305000007A66EEA77AF4EEC77AF1EE10FAA3D8FA
:103060006046A8E76046BAE76146E5E76046CEE716
:10307000224649466046BB699847FFF7B2BBC7F88E
:1030800010B0002298ED0C6A331DDFED726AD7F89C
:103090001CB0786956F8221007EE901A53F82210E7
:1030A000B8EEE77A07EE901A51080232F8EEE77AA6
:1030B00027EE267A0AEB810E94420BEB810167EE34
:1030C000A67A27EE067A67EE867A8EED007AC1ED53
:1030D000007ADFD88300D7F810B07B614DE61A463E
:1030E000C7F810B098ED0C6A331DDFED5B6AD7F8B6
:1030F0001CB0786936F9221007EE101A33F9221045
:1031000007EE901AB8EEC77A51080232F8EEE77A65
:1031100027EE267A0AEB810E94420BEB810167EED3
:10312000A67A27EE067A67EE867A8EED007AC1EDF2
:10313000007ADFD88300D7F810B07B6134E5F0EE79
:10314000675AFEEEE45A15EE900A34E7F0EE675A3D
:10315000FEEEE45A15EE901A6EE7F0EE675AFEEEB8
:10316000E45A15EE900A3AE7F0EE675AFEEEE45A9A
:1031700015EE900A4BE767EEA57AFDEEE77A17EEBB
:10318000900A00B232E567EEA57AFDEEE77A17EE17
:10319000900A00B23FE5F0EE675AFEEEE05A15EEF7
:1031A000901A4CE6F0EE675AFEEEE05A15EE900AE1
:1031B00030E6F0EE675AFEEEE05A15EE900AFDE5B5
:1031C000F0EE675AFEEEE05A15EE900A0AE667EE58
:1031D000A57AFDEEE77A17EE901A09B24AE567EE96
:1031E000A57AFDEEE77A17EE900A00B22CE5F0EE34
:1031F000675AFEEEE45A15EE902A1FE467EEA57AB0
:10320000FDEEE77A17EE902A12B2FFF731BBF0EE2F
:10321000675AFEEEE45A15EE902AFFF7FDBBF0EE7A
:10322000675AFEEEE05A15EE902AFFF79BBBF0EED0
:10323000675AFEEEE05A15EE902AFFF780BB67EE64
:10324000A57AFDEEE77A17EE902A12B2FFF724BBBB
:1032500082FF7F0000000030000000387E0080FF09
:1032600030B5184C154685B0046004F1080EEC46E4
:103270000FC98EE80F00D4ED047AF5EEC07A8CE821
:103280000F00F1EE10FA1ADDB7EE006A94ED057A40
:1032900027EE277AC6EE276A84ED0D7AC4ED0C6A14
:1032A0006DB1204640F8185F02F002F90649036943
:1032B0000020064A2162A262E36005B030BD012011
:1032C00005B030BDDCBD002400200030000000301F
:1032D00000680830704700BFB1F5807F03680A4678
:1032E00028BF4FF48072B1F5807F9A6094BF0020B0
:1032F000012070470068183002F03AB970B50468D0
:103300008AB0A369E160CBB104F11805284602F048
:10331000CFF88446EE46E668BCE80F00AEE80F0042
:10332000BCE80F00AEE80F009CE803008EE8030045
:1033300069462846049601F0C3FFF8B9E069D8B1A0
:1033400004F11C05284602F0B3F88446EE46E46812
:10335000BCE80F00AEE80F00BCE80F00AEE80F00BD
:103360009CE803008EE8030069462846049401F0B7
:10337000A7FF003818BF01200AB070BD01200AB0B5
:1033800070BD00BF30B5046883B00D46E3694BB132
:10339000A3680020E26A616A9B00009004F11C00AF
:1033A00002F088F8A3680748A26A9B00216A00908F
:1033B00004F1180002F07EF80020C4E9005003B0C8
:1033C00030BD00BFA526000810B4074B4FF07E515A
:1033D00030240022032019619C60D8605DF8044B02
:1033E0005961C3E906227047DCBD0024F6EE007A7D
:1033F0009FED166A20EE207A0160F7EE006A80EDFC
:10340000036A80ED020A27EE277AC6EE877AF4EE89
:10341000E67AF1EE10FA11DDF0EE667A4FF07E51A9
:103420004FF0000C02760022C0ED017AC0F814C003
:10343000016143768276C0ED070A7047F4EEC67AE2
:10344000F1EE10FAEAD5F0EE467AE7E70000000068
:103450000268037E128807EE902AFBEEC87A1BB141
:10346000B7EE007A77EE677AD0ED056A90ED047AD0
:1034700077EEE67A437E67EE877A0BB1F1EE677AF4
:1034800090ED030A90ED017A77EEC07AA7EE270A55
:1034900080ED030A704700BF837E80ED020AABB95E
:1034A000D0ED077A27EE800AF6EE007AB7EE007AC2
:1034B00020EE270AC7EE007AF4EEC77AF1EE10FA92
:1034C00007DDF0EE477AC0ED017A7047DFED067A4E
:1034D000E8E7F5EEC07AF1EE10FAF4D5DFED037A05
:1034E000C0ED017A704700BF6F12033B000000007F
:1034F00030B585B004460025ADF80C10ADF80820B5
:10350000ADF8043003F0D0F8BDF80C204FF4807310
:10351000206004F118002283BDF808206383E38350
:10352000A283257100F098FE04F11C0000F094FEC7
:103530009FED060A019904F1080000F06BF94FF6BF
:10354000FF736562238405B030BD00BF000000003A
:10355000F8B5044603F0A8F80026236826718342D4
:1035600005D104F10800BDE8F84000F06DB901276D
:1035700094F82050206004F11800BD40277100F03D
:1035800047FF6DB2284394F82150BD4084F82000D5
:1035900004F11C0000F03CFF94F820306DB266622C
:1035A00003F003032843022BC0B284F8210009D0A2
:1035B00000F003000228D4D1002BD2D14FF0FF330A
:1035C0006362CEE78307CCD16762CAE7704700BF6A
:1035D000F8B5134F3C687F2C07D98023114A42F27B
:1035E00024411C463B60A2F87E100F4D2B68012B36
:1035F0000AD90C4E0D4D22463146284600F0DAF924
:103600000028F8D13860F8BD22460649074800F086
:10361000D1F90028F7D12B68386001332B60F8BD51
:1036200018BE00241CBE002414BE00249CBE00242E
:1036300030B4154C2168F1B14B1E144DE81810F848
:1036400001298C4619460A2A01D00D2A02D14BB114
:10365000013BF4E70CF102037F2B10D98023236098
:1036600030BC70470122022323600D200A236854D6
:10367000AB5430BC704701220223044DF4E70CF137
:1036800001026146F0E700BF18BE00241CBE002402
:1036900010B5094C02460B46084821680844C1F1A0
:1036A000800112F039F8236818442060FFF7C0FF4A
:1036B000FFF78EFF10BD00BF18BE00241CBE002403
:1036C0000FB400B583B004A951F8040B0191FFF7C2
:1036D000DFFF03B05DF804EB04B0704710B504469B
:1036E00000210A4800F0E0F8002C094B14BF022228
:1036F000002208481A60FFF7E3FF0748FFF7E0FFE2
:103700000A20BDE8104002F0D7BF00BF9CBE0024D5
:1037100014BE00244C7701085C770108064A07496B
:10372000074808B510F086FA034A04490548BDE881
:10373000084010F07FBA00BF00000024CD3500081B
:103740009CBE0024A0BE0024074A118830B48180AA
:103750000024064D91884FF4807285600460C1801A
:10376000C26030BC704700BF3876010800400030AE
:1037700000220A2302700371704700BF30B585B084
:1037800004469FED110A9DF82050ADF80C100399E6
:10379000ADF808202A46ADF804308DED000A0EF091
:1037A00031F99DED000A2A46029904F11C000EF041
:1037B00029F99DED000A2A46019904F1380005B067
:1037C000BDE830400EF01EB900007A4438B50C4612
:1037D000054691ED000A0EF039F994ED010A05F164
:1037E0001C000EF033F994ED020A05F13800BDE833
:1037F00038400EF02BB900BF10B504460EF038F972
:1038000004F11C000EF034F904F13800BDE810405A
:103810000EF02EB970B5044682B0C1F30726CDB2C2
:10382000ADF8041002F040FF4FF480724FF0012316
:103830002060A01DA571A280E671A36002B0BDE862
:10384000704000F009BD00BF38B5044602F02CFFFF
:10385000002223682271834210D00122A57AE37AE4
:10386000954020602271A01D6DB243B900F0D0FDDB
:1038700040B22843C0B27F28A0720AD038BD00F001
:10388000C7FDB0FA80F040092843C0B27F28A0727B
:10389000F4D102F009FF07EE900AF8EE677AC4ED62
:1038A000037A38BD704700BF012910B506D0022940
:1038B00015D051B1BDE8104007F050BC0A4634485D
:1038C00034490DF0F3FBE8B1FEE7334B0A46334CC5
:1038D000334934481C600DF0E9FB68B1FEE7012272
:1038E0002C492B480DF0E2FB00B1FEE72E49284899
:1038F0000DF0FEFBC0B1FEE72B492A480DF0F8FBA6
:1039000060B1FEE7284922480DF0F2FB00B1FEE766
:1039100026491F480DF07AFB08B3FEE724492148E9
:103920000DF074FBA8B1FEE7204919480DF06EFBBD
:1039300000B1FEE716480DF0F1FB024640B9164B08
:10394000164C174917481C600DF0B0FB68B1FEE734
:10395000FEE714480DF0E2FB0028ABD0FEE70C4870
:103960000DF0DCFB0028A5D0FEE70F490D480DF057
:10397000BFFB00B1FEE70E490A480DF047FB00B15E
:10398000FEE708480DF0CAFB002893D0FEE700BF11
:1039900040C1002490020024DCC30024A5380008A4
:1039A00074020024A4BE0024F8020024540200245F
:1039B00044020024084691B208B503F053F90038D8
:1039C00018BF012008BD00BF014806F0A5BE00BF1A
:1039D00040FE0024014806F09FBE00BF40FE0024C8
:1039E000014806F099BE00BF40FE002400B583B038
:1039F0004FF0000E4FF0030C4274ADF80410BDF808
:103A0000043080F810E0A0F802C0038003B05DF835
:103A100004FB00BF2DE9F04FDFF81C8300258DB0BB
:103A2000C04C037008F140034260074601920E4605
:103A3000202229464046C4F86831C4F86481CDE9A3
:103A40000255CDE90455CDE90655CDE90855CDE936
:103A50000A5510F017FF2022294604F5A170C4F87A
:103A60003151C4F83551C4F83951C4F83D5110F002
:103A700009FF019B84F8485284F830317A68002AA3
:103A80006AD02B4604F59871454606F1100A9E4609
:103A9000F01856F803B0E2180EF1010ED0F80CC081
:103AA000D0F80490D0F8088044F803B0C2F80CC0F5
:103AB0004FF0000CC2F80490C2F80880008A25F884
:103AC00002CB10821AF8032001F8012F002A70D0CF
:103AD0007A684FF001001233724584F84802D7D853
:103AE0004FF4802290489DF8043008214FF00008E0
:103AF0004FF00009C4F884310023C4E95B020122BD
:103B0000C4F8743184F88031C4E95E2194F8481215
:103B1000C4E96489A9B3C4F89821002284F88131EA
:103B200084F888313B78C4E96722002B38D0012221
:103B300000200121013B84F8A421C4E96C01082B79
:103B400030D8DFE813F0BD00C200C700CC00D100C0
:103B5000D600DB00E100E8009DF804300121C4F844
:103B60007421C4F884314FF4802384F880216E4A94
:103B7000C4E95B2308230022C4E95E130023C4E9DF
:103B800064230123002284F88131002384F88831E2
:103B90000323C4F898313B78C4E96722002BC6D1CF
:103BA00084F8A431614804F0A9F9034638B1FFBE96
:103BB000FEE77A68123372453FF66AAF90E702A9D2
:103BC0005A48029304F0F8FA8246002876D104227B
:103BD00040F2FF710A90CDE9081294F83021002AD2
:103BE00000F0F3804FF006080AEBCA034FEACA0957
:103BF00004EB43035B7C072B07D8DFE803F0595C39
:103C00005653504D4A04072307930FFA8AF6D144BE
:103C100006EBC60604EB490904EB46077500384677
:103C200000F01AFB99F81030042B00F3AA80022B45
:103C300000F3BD8000F0B98004EB0A03002283F892
:103C4000202114F81630002B78D0022B00F08A8047
:103C5000012B40F0B2807B78012B00F0B080002B6C
:103C6000334B18BF002305A93048CDE9053803F0D0
:103C700071FD002840F0AC800AF1010A94F830315F
:103C80005FFA8AFA534540F2A0802A4B53F82A8003
:103C9000AAE706230793B8E705230793B5E70423AC
:103CA0000793B2E703230793AFE702230793ACE739
:103CB00000230793A9E701230793A6E7FFBEFEE7CA
:103CC00003224023C4E96A236CE707226023C4E986
:103CD0006A2367E70F228023C4E96A2362E71F2271
:103CE000A023C4E96A235DE73F22C023C4E96A2315
:103CF00058E77F22E023C4E96A2353E7FF224FF409
:103D00008073C4E96A234DE740F2FF124FF49073C9
:103D1000C4E96A2346E740F2FF324FF4A073C4E9D6
:103D20006A233FE7E8C300240020024054C5002472
:103D30000002B0256C770108004100307B78062B2B
:103D400037D0072B3DD0022B4AD0032B4AD0002B73
:103D50004CD0012B48D0042B4AD0052B254B18BF43
:103D6000002380E77B78042B25D0052B2BD08BB349
:103D7000012B31D0022B31D0032B1F4B18BF002356
:103D800071E70323043504EB0A0B4FF000092544C7
:103D90008BF82031284609F1010900F05DFA9BF803
:103DA000203104354B45F5DC4BE70123EAE70223DC
:103DB000E8E7124B57E7124B55E7002353E7114B47
:103DC00051E7114B4FE7114B4DE70DB0BDE8F08FB8
:103DD000FFBEFEE70E4B46E70E4B44E70E4B42E7B5
:103DE0000E4B40E70E4B3EE70E4B3CE70E4B3AE7DF
:103DF0000E4B38E70000B84F002090360800900CBA
:103E00001000C0102000F0148000501D000180211F
:103E10000004002A0008302E001060320040C03A32
:103E20000080F03E00005247000021430000844B18
:103E300038B5094C40F2FF724FF0011104F5B67528
:103E4000284604F067F994F83021D4F86411284624
:103E5000BDE8384003F0D2BEE8C30024034B0F296D
:103E6000D3F8640198BF00EB41007047E8C3002419
:103E7000214B02689A4200D07047204A0023204814
:103E8000D2F8D81030B51F4C41F0200183B0C4F8EF
:103E9000D001092004F5E875C4E975034FF480608A
:103EA000C2F8D810D2F8D8204FF40061C4E97730B6
:103EB00094F8480202F02002C4F8E4114FF40051D3
:103EC000984201922846C4F8E811C4E97C33019B6A
:103ED00014BF00234FF48073C4F8EC3104F092FB5C
:103EE00008B1FFBEFEE704F5B673C4F8B851C4F8D4
:103EF000083203B030BD00BF002002400044025829
:103F000040000240E8C30024014804F0F3BE00BFB3
:103F1000B8C5002402682DE9F84F4B4B9A4201D0F6
:103F2000BDE8F88F494D95F84832002BF8D095F848
:103F30003031002B77D0002405F10C0905F5A1766E
:103F400005F59877A04613E003F0010117F811BCBE
:103F5000A9F1080000F06AFABBF1010F25D895F825
:103F60003031013409F112090236A2B293422BD941
:103F700017F8012F002AF4D0D5F8643100213278E7
:103F800033F81400D5F8683103EB041323F812005A
:103F9000338801339BB233805FFA83FA3A789A42CE
:103FA000D2D88A46A6F80080D0E7CAF34001A9F12A
:103FB000040000F03BFABBF1020FCAF38001CED03F
:103FC000484600F033FACAE7002395F84802204932
:103FD00009229842C5F8D8314FF48060C5F8D01155
:103FE000C5F8D4214FF400614FF40052C5F8DC311C
:103FF00008BF4FF48073C5F8E821C5E978010022B5
:104000001448C5E97B32C5F8F42104F0FBFA08B185
:10401000FFBEFEE795F83021D5F864110E48BDE8E3
:10402000F84F03F0EBBD0A4909224FF48060C5F850
:10403000D831C5E974124FF400614FF40052C5E95C
:104040007730C5E97912DAE700200240E8C300249E
:1040500040000240B8C5002454C50024704700BF8A
:1040600010B592B0ADF804100180C9B2149C0B29B0
:10407000C460C0E901233FD090F801C0BCF10F0F2C
:104080003AD8022A3FD0032A02D0012A00D00022C7
:104090000E92012B02D0022B18BF0023022C0F938B
:1040A0002CD0032C2AD0012C28D000230A291093CD
:1040B00027D85C4A02EB812202610A2914D8DFE882
:1040C00001F0A39587796B5D4F4133250600564B70
:1040D000D3F8E01041F48061C3F8E010D3F8E03089
:1040E00003F480630C930C9B01230DA9104603FA83
:1040F0000CF30D9305F050F912B010BD0A2910947D
:10410000D7D90022D8E711220E92C2E7464BD3F846
:10411000E01041F40071C3F8E010D3F8E03003F48C
:1041200000730B930B9BDFE73F4BD3F8E01041F498
:104130008071C3F8E010D3F8E03003F480730A9381
:104140000A9BD1E7384BD3F8E01041F08001C3F867
:10415000E010D3F8E03003F080030993099BC3E734
:10416000314BD3F8E01041F04001C3F8E010D3F830
:10417000E03003F040030893089BB5E72A4BD3F8DF
:10418000E01041F02001C3F8E010D3F8E03003F074
:1041900020030793079BA7E7234BD3F8E01041F0D8
:1041A0001001C3F8E010D3F8E03003F010030693D9
:1041B000069B99E71C4BD3F8E01041F00801C3F8C7
:1041C000E010D3F8E03003F008030593059B8BE77C
:1041D000154BD3F8E01041F00401C3F8E010D3F818
:1041E000E03003F004030493049B7DE70E4BD3F807
:1041F000E01041F00201C3F8E010D3F8E03003F022
:1042000002030393039B6FE7074BD3F8E01041F0E1
:104210000101C3F8E010D3F8E03003F0010302938A
:10422000029B61E7000002580044025808B50121D2
:1042300043780069994089B205F0B6FA003818BF92
:10424000012008BD01230A464178006903FA01F103
:1042500089B205F0AFBA00BF8378022B30B50446AF
:104260008FB037D0032B33D0012B31D000230A93EA
:10427000E378012B2AD0022B28D000230B930023B4
:1042800020460C9303F0E0F80546204603F0E4F8DE
:1042900023780990082B13D8DFE803F01F32455824
:1042A0006B7E91A40500594BD3F8E02042F4807254
:1042B000C3F8E020D3F8E03003F480730893089B40
:1042C00009A9284605F068F80FB030BD0B93D6E772
:1042D0000A93CDE711230A93CAE74C4B09A9284654
:1042E000D3F8E02042F00102C3F8E020D3F8E03038
:1042F00003F001030093009B05F04EF80FB030BDB2
:10430000424B09A92846D3F8E02042F00202C3F844
:10431000E020D3F8E03003F002030193019B05F0A5
:104320003BF80FB030BD394B09A92846D3F8E0203F
:1043300042F00402C3F8E020D3F8E03003F00403B5
:104340000293029B05F028F80FB030BD2F4B09A94E
:104350002846D3F8E02042F00802C3F8E020D3F862
:10436000E03003F008030393039B05F015F80FB04A
:1043700030BD264B09A92846D3F8E02042F01002B0
:10438000C3F8E020D3F8E03003F010030493049B5B
:1043900005F002F80FB030BD1C4B09A92846D3F830
:1043A000E02042F02002C3F8E020D3F8E03003F030
:1043B00020030593059B04F0EFFF0FB030BD134BB6
:1043C00009A92846D3F8E02042F04002C3F8E020D3
:1043D000D3F8E03003F040030693069B04F0DCFFC3
:1043E0000FB030BD094B09A92846D3F8E02042F0B0
:1043F0008002C3F8E020D3F8E03003F08003079395
:10440000079B04F0C9FF0FB030BD00BF0044025845
:1044100038B5054603F018F80446284603F01CF8A2
:1044200001462046BDE8384005F0BEB970B50646E5
:104430000D4603F009F80446304603F00DF82A1E35
:104440000146204618BF0122BDE8704005F0B2B910
:104450000023122270B586B0CDE9022304930368CD
:10446000032B01D804230593061D841D304602F05A
:10447000EBFF0546304602F0EFFF034601A9284650
:10448000019304F089FF204602F0DEFF0346204638
:104490001C4602F0E1FF01A903462046019304F007
:1044A0007BFF06B070BD00BF634A0368934210B53E
:1044B0008CB028D0614A934258D0614A934200F0B0
:1044C0009480604A934201D00CB010BD5E4C5F48AE
:1044D000D4F8E03043F00203C4F8E030D4F8E03020
:1044E00003F002030A930A9BFFF7B2FFD4F8F430FB
:1044F00043F08003C4F8F430D4F8F43003F08003C0
:104500000B930B9BE0E7504C5148D4F8E03043F05C
:104510000203C4F8E030D4F8E03003F00203019362
:10452000019BFFF795FFD4F8E83000221F2043F4E9
:1045300000131146C4F8E830D4F8E83003F400134F
:104540000293029BD4F8D83043F00103C4F8D8306A
:10455000D4F8D83003F001030393039B03F0A0FECB
:104560001F200CB0BDE8104003F0D8BE364C3948CF
:10457000D4F8E03043F08003C4F8E030D4F8E03001
:1045800003F080030493049BD4F8E03043F002036B
:10459000C4F8E030D4F8E03003F002030593059B43
:1045A000FFF756FFD4F8E8300022212043F48003BF
:1045B0001146C4F8E830D4F8E83003F480030693D9
:1045C000069BD4F8D83043F00103C4F8D830D4F8AF
:1045D000D83003F001030793079B03F061FE21200D
:1045E0000CB0BDE8104003F099BE1B48FFF730FF48
:1045F000154B00224820D3F8E840114644F400044B
:10460000C3F8E840D3F8E84004F400040894089C98
:10461000D3F8D84044F00104C3F8D840D3F8D830D8
:1046200003F001030993099B03F03AFE48200CB004
:10463000BDE8104003F072BE005400400058004036
:10464000005C0040001C005800440258C0C8002410
:1046500038C6002410C70024E8C700242DE9F04321
:104660001A4B87B000254FF010099E46EC46184BB8
:10467000FF22E04667461A700EF118060EF130046C
:10468000CDE90055CDE90255ADF80090BCE80F002A
:10469000CDE90455AEE80F009CE803000095ADF8A5
:1046A00000908EE80300B8E80F000FC69CE80300F6
:1046B0000095ADF8009086E803000FCF0FC49CE88A
:1046C000030084E8030007B0BDE8F0830400002481
:1046D00034C6002410B5EFF3108472B6084B1A7874
:1046E000120602D504B962B610BD1B78D82205485F
:1046F0005BB202FB0300143004F0FCFAF2E700BFE7
:1047000034C6002438C60024014805F0EBBE00BFC3
:10471000C4C60024014805F0E5BE00BF9CC70024C4
:10472000014805F0DFBE00BF74C800242DE9F04346
:104730000F68D8243F4D85B007FB04F4032F05EB29
:104740000403036040DCCB680E46012B3CD84DD0FF
:104750004FF0D808B646DFF8FC9008FB0758BEE8D3
:104760000F00C446ACE80F00DEF800300DF1100E6B
:10477000CCF80030D8F808C099E80F000EE90F0017
:104780000EEB8703BCF1010F53F8103CC8F88C30D6
:1047900031D0BCF1020F42D0BCF1000F35D0317CDA
:1047A0008C34D823002201202C4403FB07534900FA
:1047B000C3E92602C3F894102046C3E92822C3E9BE
:1047C0002A2205F081FC18B1012005B0BDE8F08374
:1047D0000146204605F092FE0028F5D1014620460C
:1047E00005F0B6FE003818BF0120EEE70B7C103B49
:1047F000672BADD9E8E702F0F9F80F4B98420CBFF0
:104800000E4B0F4BC8F89030C9E702F0EFF80A4B97
:1048100098420CBF0B4B0C4BC8F89030BFE702F02E
:10482000E5F8054B98420CBF084B094BC8F890308F
:10483000B5E700BF38C60024000E27072D0FB030A3
:104840003211D0205F4390608A62E030200BA010CC
:104850001A098010407601082DE9F041D0F8008057
:1048600082B00D4617461E4608F18C04204605F01E
:1048700041FE2028FAD1D8F80C3073B96D002046DB
:10488000089C33463A46A9B2009405F073FC003800
:1048900018BF012002B0BDE8F081089B32463946BE
:1048A000204605F03BFDF2E7044B10221A7483F812
:1048B000E82083F8C02183F89822704738C6002486
:1048C00030B5002395B04FF48071062204460B9357
:1048D00006921393CDE90C13CDE90E33CDE91133D4
:1048E00002F086F807282BD004F1100541F2883237
:1048F00006A9284606F07EFD28B10123184684F853
:104900005C3015B030BD0222022306A92846CDE94D
:10491000002310220123CDE9022300224FF480035B
:10492000CDE9042305224FF0807306926A460F9367
:1049300041F2883306F0CAFE0028DED115B030BD42
:104940000323012084F85C3015B030BD0000000066
:1049500070B50023A4B04FF080724FF48075044608
:10496000ADF806300D93CDE910320122CDE90E539A
:10497000CDE91223CDE91433002943D0F02300F10F
:10498000100508AEADF80630C02341F2883231463A
:104990002846089306F02EFD28B10123184684F816
:1049A0005C3024B070BD41F288320DF1060128461A
:1049B00006F08AFD03460028EFD105224FF48071EE
:1049C0001E93284616924FF080721B9321931F92DC
:1049D00002AA9FED1F7BCDE91C13CDE922338DED9B
:1049E000027B9FED1D7B41F2883316A98DED047B80
:1049F0009FED1B7B8DED067B06F068FE0028CCD179
:104A000024B070BD00F1100508AE612341F2883278
:104A100031462846089306F0EDFC0028BDD141F24E
:104A200088320DF10601284606F0CCFD0028B4D1ED
:104A3000BDF80630204623F0780343F04003ADF87C
:104A40000630FFF73DFF00289ED0A6E7AFF30080B9
:104A50000000000001000000100000000100000044
:104A600000000000000040002DE9F04F00234FF44B
:104A7000807501264FF0807804462DED028BABB097
:104A80008DF8073013932193299314950E96CDF842
:104A90005C80CDE91533CDE91863CDE91A33CDE952
:104AA0002253CDE92433CDE9273306231C9301F0AB
:104AB0009FFF072808D004F1100741F288321CA993
:104AC000384606F097FC40B10123184684F85C3064
:104AD0002BB0BDEC028BBDE8F08F4FF0020A4FF017
:104AE000020B4FF0050941F2883308AA1CA9384689
:104AF000CDF89480CDF870909FED2D8BCDE908AB6B
:104B00004FF0000A4FF4800B8DED0A8BCDE90CAB12
:104B100006F0DCFD0028D7D141F2883238460EA9D4
:104B200006F068FC0028CFD1402341F288320DF115
:104B3000070138468DF8073006F0C6FC0028C3D1BF
:104B400041F288330EA902AA3846CDF83890CDF844
:104B50005C809FED197B8DED048BCDE906AB8DED6F
:104B6000027B06F0B3FD03460028ADD1CDF870906E
:104B70004FF00109CDF894804FF00008219308AA66
:104B800029931CA938462295CDE92333CDE9273353
:104B900041F288338DED0A8BCDE90CABCDE9088964
:104BA00006F094FD002893D0304684F85C608FE7CF
:104BB0001000000001000000400000004000000064
:104BC0002DE9F043624CA3B00D46046001F010FFE4
:104BD000072800F0A980286823466968AA6807C3E7
:104BE0001E46AB8926F8043B3046257B677B06F0E2
:104BF000E3FBE0B9574B012D4FF00108E061236161
:104C000014BF4FF480134FF40003C4E9058893FAEE
:104C1000A3F3B3FA83F34FF48079013BC4F82490F3
:104C2000C4E90B003046236206F05AFB38B101227A
:104C3000134684F85C20184623B0BDE8F083662351
:104C40000B90139041F2883206A90693CDE90C909F
:104C5000CDE90E00CDE91100304606F0CBFB00286F
:104C6000E5D1992341F2883206A93046069306F031
:104C7000C1FB0028DBD105231C9019906A461493D0
:104C80004FF08073219014A91D9341F288339FED5A
:104C90002A7BCDE91A90CDE91F008DED007B9FEDB9
:104CA000287B30468DED027B9FED277B8DED047BCD
:104CB00006F00CFD0028BAD129462046FFF748FE31
:104CC0000028B4D12046FFF7CFFE03460028AED11E
:104CD000002FB0D1189330460027002606AA14A949
:104CE000CDF86890CDE91F33EB2314934FF4406364
:104CF0001B934FF4005317934FF440431C93A0238E
:104D00001693062319934FF0805321934FF040736D
:104D1000CDE906671D9306F051FD034600288AD0B1
:104D2000434684F85C8086E701230322184684F812
:104D30005C2023B0BDE8F08300000000010000000B
:104D40001000000001000000000000000000400012
:104D500098C90024005000522DE9F04F8FB0414B0C
:104D60000024026800AF9A427C63C7E90944C7E99E
:104D70000B4403D03C37BD46BDE8F08F3A4B40F6BC
:104D800009213A48EB46D3F8D42007F11C0607F175
:104D9000220A4FF0020942F480424FF00308C3F8A0
:104DA000D420D3F8D42002F48042BA60BA68D3F891
:104DB000E02042F04002C3F8E020D3F8E02002F007
:104DC0004002FA60FA68D3F8E02042F02002C3F80B
:104DD000E020D3F8E02002F020023A613A69D3F8EB
:104DE000E02042F01002C3F8E020D3F8E02002F007
:104DF00010027A617A69D3F8E02042F00202C3F827
:104E0000E020D3F8E030F86103F002033984BB619D
:104E1000174B7B60BB697B6853F8040F7B6002F023
:104E200013FB7B680546186802F016FB16F8013B79
:104E3000786207F124012846C7F830807B63C7E910
:104E40000A9404F0A9FA5645E5D100225C201146E7
:104E500003F026FA5C2003F061FA3C37DD46BD46DC
:104E6000BDE8F08F00500052004402580A0A0909B8
:104E7000F4C90024114B02689A4200D07047104ACE
:104E800070B5D2F8D4300F4C23F4804304F11806E7
:104E9000C2F8D43054F8040F02F0D6FA0546206860
:104EA00002F0DAFA0146284604F0B6FBB442F1D12A
:104EB0005C20BDE8704003F03FBA00BF00500052D4
:104EC00000440258F4C90024014806F003BD00BFA5
:104ED000A8C90024084B1A1D981D03F1080110B43D
:104EE0009C1C9A6603F10A02C3E91834C3E91B014A
:104EF0005DF8044B5A67704798C9002438B50368B9
:104F000071B9026A00F1280500F5AC74012A0CBFE2
:104F1000002140218BBB1D4B5722C0F858310DE0BA
:104F2000426A00F1C00500F5E874012A0CBF0021B7
:104F30004021EBB1164B5A22C0F8D0310023204655
:104F4000C4E901214FF480524FF4806163626261D1
:104F50004FF48042C4E903314FF48073C4E906235F
:104F60004FF40033236203F04DFB58B1FFBEFEE760
:104F7000084B5822C0F8D031E0E7074B5922C0F85F
:104F80005831DBE7C5E92044A56338BD1000024075
:104F90007000024028000240580002402DE9F04312
:104FA000821D05468BB0031D05F10A010830CDE9CD
:104FB000052305F10C02AB69CDE907010992002B2D
:104FC0003DD0EB69B3FA83F84FEA58180123022267
:104FD00005AE0AAF4FF006090393CDE9012356F859
:104FE000044B2B792278934216D02B68F3B1012B16
:104FF00002D1F2B10A230493204602F02DFA0346AF
:105000002046009302F020FA694604F0C5F9BE423A
:10501000E5D10BB0BDE8F083697963789942E4D1BA
:10502000B8F1000FF3D02B68002BE0D1CDF8109031
:10503000E2E76378022B14BF0A230823DBE74FF073
:105040000108C3E7534A0368934230B505468BB065
:1050500055D02032934252D04F4A934204D020324E
:10506000934201D00BB030BD4C4C4D48D4F8E030E9
:1050700043F00103C4F8E030D4F8E03003F001035A
:105080000593059BD4F8E03043F00803C4F8E03002
:10509000D4F8E03003F008030693069BD4F8E03020
:1050A00043F04003C4F8E030D4F8E03003F04003AC
:1050B0000793079BD4F8F03043F40003C4F8F030B2
:1050C000D4F8F03003F400030893089BFFF766FF61
:1050D000D4F8D830296843F001032F4A3048C4F887
:1050E000D830891AD4F8D83018BF012103F0010351
:1050F0000993099B0BB0BDE83040FFF7FFBE274C7A
:105100002848D4F8E03043F00103C4F8E030D4F884
:10511000E03003F001030093009BD4F8E03043F04B
:105120001003C4F8E030D4F8E03003F0100301932A
:10513000019BD4F8E03043F04003C4F8E030D4F8E9
:10514000E03003F040030293029BD4F8F03043F4C4
:105150008003C4F8F030D4F8F03003F480030393F4
:10516000039BFFF71BFFD4F8D830296843F00103F5
:10517000084A0C48C4F8D830891AD4F8D83018BF77
:10518000012103F001030493049B0BB0BDE8304000
:10519000FFF7B4BE04580140045C014000440258CB
:1051A0006CCC002410CA0024014803F0A3BD00BF4A
:1051B00068CB0024014803F09DBD00BFE0CB002474
:1051C000014803F097BD00BFC4CD0024014803F09F
:1051D00091BD00BF3CCE00241A4A0368934210B42C
:1051E0000BD02032934208D0174A934216D0203277
:1051F000934213D05DF8044B7047144B0022D3F850
:105200005442C3F85822002CF4D0D3F84802D3E912
:10521000931223465DF8044B520818470B4B0022AB
:10522000D3F8B044C3F8B424002CE3D0D3F8AC24B2
:10523000D3F8A814D3F8A404520823465DF8044B0D
:10524000184700BF04580140045C014010CA002404
:10525000184A0368934210B40BD02032934208D00E
:10526000154A934217D02032934214D05DF8044B74
:105270007047124BD3E994245208C3F85822002CEB
:10528000F4D0D3E99201234601EB820100EB8200C6
:105290005DF8044B1847094BD3F8AC24D3F8B0445D
:1052A0005208C3F8B424002CE0D0D3F8A814D3F8E3
:1052B000A404E8E704580140045C014010CA00243B
:1052C0002DE9F04F0C684FF41776754F87B004FB4B
:1052D00006F6012C07EB060AC0F800A000F3A08038
:1052E0000D468E464FF00008D44669A3D3E900234B
:1052F00069A1D1E90001CDE9022306ABCAF85082C9
:1053000003EB8403CDE9040153F810BC53F8083CC7
:10531000CAE992880193BEE80F00ACE80F00BEE82E
:105320000F00ACE80F00019B9EE80300CAF828B00C
:10533000CAF8C0308CE803002B69042B0CD8DFE8D6
:1053400003F0737D879103004FF41773554A03FBF5
:1053500004739A64C3F8E020AA692B6A002A43D038
:10536000002B4FF4177308BF022203FB047318BF0E
:105370000322DA6201221A63EA696B6A002A40D1C9
:10538000191E4FF4177318BF012103FB0473C3E9FF
:1053900031126B69022B05D8434A12F80380434A45
:1053A00052F823904FF4177306F1280042464946FD
:1053B00003FB04740023384463646363E365C4F847
:1053C000DC30C4F8CC30C4F8F430C4E90F33C4E99D
:1053D0001533C4E93533C4E93B33022308F01CFB21
:1053E000002849D0FFBEFEE7191E4FF4177318BFFF
:1053F000012103FB0473C3E90B12EA696B6A002AFB
:10540000BED0002B4FF4177308BF022203FB0473B6
:1054100018BF0322C3F8C4200122C3F8C820B8E78C
:10542000012007B0BDE8F08F4FF417734FF4FA5224
:1054300003FB04739A64C3F8E0208DE74FF41773FD
:105440004FF47A5203FB04739A64C3F8E02083E7B5
:105450004FF417734FF4FA4203FB04739A64C3F8D2
:10546000E02079E74FF417734BF6803203FB0473A7
:105470009A64C3F8E0206FE706F1C00002234246B9
:105480004946384408F0C8FA0028CAD0FFBEFEE7F3
:1054900004580140045C014024580140245C014050
:1054A00010CA002400770100AC770108B07701082A
:1054B0000068704770B5046882B015460E46C4F89F
:1054C0005032C4E99212069AC4F85422A269012A01
:1054D00026D0626A012A9AB211D0294604F1C0008E
:1054E000019208F055FB236A019A012B10D029463E
:1054F00004F1280008F04CFB002002B070BD04F15C
:10550000C000019208F0D6FB236A019A012BEED16C
:10551000314604F1280008F0CDFB002002B070BD38
:10552000226A012A9AB211D0294604F12800019278
:1055300008F02EFB636A019A012B10D0294604F172
:10554000C00008F025FB002002B070BD04F1280067
:10555000019208F0AFFB636A019A012BEED131464C
:1055600004F1C00008F0A6FB002002B070BD00BF2F
:1055700003681B69042B05D8044A02EB830393EDEF
:10558000000A70479FED020A704700BFBC77010810
:1055900000803B470368D3F8580270471F4BC1682F
:1055A0000268F0B5D3F88C5083B00369ADB24D1BDF
:1055B000A2B1AB4212D00446866811D2F018E91AA3
:1055C000CDE9001000F0AAFF0023DDE90010D4E9C6
:1055D0000062B047E3682561AB421BD003B0F0BD69
:1055E000F018C91ACDE9000100F098FF0023DDE9A9
:1055F0000001D4E90072B8473046294600F08EFF1A
:1056000000233046626829462668B047E368256172
:10561000AB42E3D10023236103B0F0BD00000240A0
:105620002DE9F84F04460F4690461E4600F134051A
:10563000284608F0CBFE2028FAD14FF480630020E2
:10564000C4F8D030C4F848314FF44033C4F8CC002B
:10565000C4F8E030C4F858314E4BC4F8DC00C4F84C
:10566000C03003F57A73C4F8E400C4F8383140233D
:10567000C4F8C800C4F84031E369C4F84401C4F870
:105680005401C4F85C01C4E93500C4E95300072B98
:105690000BD8DFE803F061535A373E454C045123E1
:1056A000C4F8C4305223C4F83C3104F59C79484610
:1056B00002F0A8FF08B1FFBEFEE7C4F8A890C4F846
:1056C0007051EFF3108972B6DFF8D0B094F91C3046
:1056D000DFF8CCA08BF800300A9B2F4CCAF80030C2
:1056E0000B9B23600EB11846B0471FFA88F239466B
:1056F000284608F055FCB0BBB9F1000F00D162B6E6
:10570000BDE8F88F3F23C4F8C4304023C4F83C31CF
:10571000CBE74123C4F8C4304223C4F83C31C4E78A
:105720004723C4F8C4304823C4F83C31BDE74F23B5
:10573000C4F8C4305023C4F83C31B6E72B23C4F876
:10574000C4302C23C4F83C31AFE72D23C4F8C43057
:105750002E23C4F83C31A8E72923C4F8C4302A23F7
:10576000C4F83C31A1E7FF238BF800300023CAF8CE
:10577000003023600A9B3BB10B9801219847012020
:10578000B9F1000FBCD1BAE70120B9F1000FB7D1D0
:10579000B5E700BF8800024000DE0024FCDD0024E5
:1057A000F8DD00242DE9F84F04460F4690461E46CA
:1057B00000F13405284608F009FE2028FAD14FF4FC
:1057C00080630020C4F8D030C4F848314FF440332F
:1057D000C4F8CC00C4F8E030C4F858314E4BC4F8DB
:1057E000DC00C4F8C03003F57A73C4F8E400C4F8F0
:1057F00038314023C4F8C800C4F84031E369C4F824
:105800004401C4F85401C4F85C01C4E93500C4E99A
:105810005300072B0BD8DFE803F061535A373E459E
:105820004C045123C4F8C4305223C4F83C3104F171
:10583000C009484602F0E6FE08B1FFBEFEE7C4F824
:10584000AC90C4F8F850EFF3108972B6DFF8D0B01E
:1058500094F91C30DFF8CCA08BF800300A9B2F4C59
:10586000CAF800300B9B23600EB11846B0471FFAF0
:1058700088F23946284608F0E5FBB0BBB9F1000FC5
:1058800000D162B6BDE8F88F3F23C4F8C43040238E
:10589000C4F83C31CBE74123C4F8C4304223C4F8F8
:1058A0003C31C4E74723C4F8C4304823C4F83C3132
:1058B000BDE74F23C4F8C4305023C4F83C31B6E7E9
:1058C0002B23C4F8C4302C23C4F83C31AFE72D237C
:1058D000C4F8C4302E23C4F83C31A8E72923C4F807
:1058E000C4302A23C4F83C31A1E7FF238BF80030F1
:1058F0000023CAF8003023600A9B3BB10B980121BA
:1059000098470120B9F1000FBCD1BAE70120B9F1E5
:10591000000FB7D1B5E700BF8800024000DE0024C9
:10592000FCDD0024F8DD00242DE9F0410D4682B0B5
:10593000EFF3108772B6002948D1FF23254A264C81
:10594000237013682BB1002029461060234A106889
:10595000984723781B0625D5DFF888800025204E40
:10596000444605E001351C3406F5D876092D19D0DA
:10597000A369012B1BD0002BF4D1216830460029EC
:10598000F0D06369019323690093E3682289FFF7EC
:1059900009FF0028E6D1C5EBC50508EB850348F8EB
:1059A0002500586007B962B602B0BDE8F0816168B1
:1059B0000029D7D063693046019323690093E368D7
:1059C0002289FFF72DFE0028CCD1E4E709F0FAFF89
:1059D000B3E700BFF8DD0024FCDD002400DE002476
:1059E000C8CE00244C000024F0B5002387B002226A
:1059F00004460493CDE90223027EC3690B2A4FEAD1
:105A0000430523D1A27E0B2A02D1002007B0F0BDAE
:105A100048496B1C484851F823304578017818787C
:105A2000E67E884269D0824277D0D87803F1030CB1
:105A300081426ED0824278D0987903F1060C884278
:105A40006FD0824233D0012007B0F0BD394B3A48C5
:105A500053F8253001784678187894F819C08142B7
:105A60003DD0824241D0D87803F1030E814240D02C
:105A700082424AD0987903F1060E884241D0824290
:105A8000E1D1DB796345DED1734604F118069B78DA
:105A90003046059301F0D8FC034630461E4601F01F
:105AA000DBFC01A90190304603F076FCAAE7DB7924
:105AB000B342C8D163461A349B782046059301F05F
:105AC000C3FC034620461C4601F0C6FC034601A960
:105AD0002046019303F060FC002007B0F0BD93F86E
